:100000000C942C010C9456010C9456010C9456013E
:100010000C94CF060C94CF060C94CF060C94CF060C
:100020000C944D070C9456010C9456010C945601F7
:100030000C9456010C9456010C9456010C945601E4
:100040000C9496080C9456010C941F060C945601BF
:100050000C9473050C9449050C9456010C945601AC
:100060000C9456010C9456010C9464070C945601A0
:100070000C941F050C94F5040C9456010C94560135
:100080000C9456010C9456010C94560164026702BC
:100090005A025E027E027E026B026F0275027902D4
:1000A0000000200023002600290000002100240079
:1000B00027002A0000002200250028002B00020251
:1000C00002020202020204040404040404040303FE
:1000D0000303030303030101010101010101010203
:1000E0000408102040800102040810204080010212
:1000F0000408102040800102040810204080000005
:1001000000010200090A00000000040308070000C3
:1001100000000000000000000000000000004E4150
:100120004E494E495459494E46CDCCCC3D0AD72371
:100130003C17B7D13877CC2B329595E6241FB14FB9
:100140000A000020410000C84200401C4620BCBEFE
:100150004CCA1B0E5AAEC59D7400407A10F35A006B
:10016000A0724E18090010A5D4E80000E8764817E0
:100170000000E40B54020000CA9A3B000000E1F5C5
:1001800005000080969800000040420F000000A08B
:100190008601000000102700000000E803000000B6
:1001A000006400000000000A0000000000010000E0
:1001B0000000002C76D888DC674F0823DFC1DFAE53
:1001C00059E1B1B796E5E3E453C63AE6519976961C
:1001D000E8E6C28426EB898C9B62ED407C6FFCEFE5
:1001E000BC9C9F40F2BAA56FA5F490055A2AF75C13
:1001F000936B6CF9676DC11BFCE0E40D47FEF520C5
:10020000E6B500D0ED902E0300943577050080848C
:100210001E080000204E0A000000C80C33333333A0
:100220000F986E12831141EF8D2114893BE655160C
:10023000CFFEE6DB18D1844B381BF77C1D901DA444
:10024000BBE424203284725E228100C9F124ECA137
:10025000E53D2700C918A30E11241FBECFEFD0E43F
:10026000DEBFCDBF12E0A0E0B1E0E2EDF8E400E0D7
:100270000BBF02C007900D92A23CB107D9F727E04F
:10028000A2ECB2E001C01D92A833B207E1F711E081
:10029000CBE2D1E004C02197FE010E943C1ACA3291
:1002A000D107C9F70E94B30E0C945C240C94000093
:1002B000FC01A089B1898C91A689B78982FD0FC004
:1002C0009C91818D8F5F8F73228D821749F0218DD4
:1002D000DF01A20FB11D5D969C93818F08958C91D3
:1002E0000895FC01918D828D981761F0828DDF0158
:1002F000A80FB11D5D968C91928D9F5F9F73928F19
:1003000090E008958FEF9FEF0895FC01918D828D0D
:10031000981731F0828DE80FF11D858D90E00895DA
:100320008FEF9FEF0895FC01918D228D892F90E032
:10033000805C9F4F821B91098F73992708958DECE4
:1003400093E00E94930121E0892B09F420E0822FA1
:1003500008958AE694E00E94930121E0892B09F434
:1003600020E0822F0895FC01848DDF01A80FB11DCC
:10037000A35ABF4F2C91848D90E001968F739927DB
:10038000848FA689B7892C93A089B1898C918064C8
:100390008C93938D848D981306C00288F389E02D89
:1003A00080818F7D80830895EF92FF920F931F933A
:1003B000CF93DF93EC0181E0888F9B8D8C8D981318
:1003C00005C0E889F989808185FD24C0F62E0B8D52
:1003D00010E00F5F1F4F0F731127E02E8C8DE81276
:1003E0000CC00FB607FCFACFE889F989808185FF38
:1003F000F5CFCE010E94B301F1CF8B8DFE01E80F46
:10040000F11DE35AFF4FF0820B8FEA89FB8980814F
:10041000806207C0EE89FF896083E889F98980815D
:100420008064808381E090E0DF91CF911F910F91F4
:10043000FF90EF900895CF93DF93EC01888D882390
:10044000C9F0EA89FB89808185FD05C0A889B98941
:100450008C9186FD0FC00FB607FCF5CF808185FF1C
:10046000F2CFA889B9898C9185FFEDCFCE010E948A
:10047000B301E7CFDF91CF910895362F90E0FC01D3
:10048000E250FF4F4491FC01E252FF4F2491FC01E6
:10049000E254FF4F8491882309F443C0442371F14F
:1004A00050E0FA013197EA30F10540F5EA5BFF4F81
:1004B0000C943C1A909180009F7703C0909180002B
:1004C0009F7D909380001AC094B59F7702C094B529
:1004D0009F7D94BD13C09091B0009F7703C0909111
:1004E000B0009F7D9093B00009C0909190009F77DD
:1004F00003C0909190009F7D90939000E82FF0E0D2
:10050000EE0FFF1FEC54FF4FA591B4918FB7F894F5
:10051000EC91311103C020952E2301C02E2B2C937A
:100520008FBF08953FB7F89480915303909154037F
:10053000A0915503B091560326B5A89B05C02F3F47
:1005400019F00196A11DB11D3FBFBA2FA92F982FF9
:100550008827820F911DA11DB11DBC01CD0142E074
:10056000660F771F881F991F4A95D1F70895089540
:10057000E091610380916003E81730F4F0E0EE59F8
:10058000FC4F808190E008958FEF9FEF0895909148
:10059000610380916003981750F4E92FF0E0EE5961
:1005A000FC4F208130E09F5F9093610302C02FEFEA
:1005B0003FEFC90108958091600390E020916103AD
:1005C000821B9109089520914C0330914D03281707
:1005D000390771F490914B0380914A03981741F0C9
:1005E000E0914B03F0E0E65FFC4F808190E00895DE
:1005F0008FEF9FEF089508951F93CF93DF93DC0152
:100600005C962D913C915D972115310539F481E07F
:1006100090E013969C938E9312973DC05196ED9166
:10062000FC91529750969C915097892F80951FB7B7
:100630005E964C915E9741FB772770F941FD60957E
:10064000F8944081772311F0492B01C0482340835F
:10065000E9012197F1F748E0508160FF02C0592B72
:1006600001C058235083E9012197F1F76695415065
:1006700099F7772321F090818923808303C08081BB
:10068000982B90831FBF5C968D919C915D970197ED
:10069000F1F721E030E0C901DF91CF911F9108957A
:1006A00020914C0330914D032817390771F4809144
:1006B0004A0320914B0390E0805C9F4F821B91097D
:1006C00060E470E00E94091A089580E090E00895C7
:1006D00020914C0330914D0328173907B9F49091BC
:1006E0004B0380914A03981789F0E0914B03F0E0A7
:1006F000E65FFC4F808120914B0330E02F5F3F4F3E
:100700002F73332720934B0390E008958FEF9FEFD3
:1007100008952CE031E0FC0131832083E0914C030B
:10072000F0914D03E817F90759F4A389B4899C9116
:100730008589809589238C9310924D0310924C03E8
:10074000089585ED8093BC008091BC0084FDFCCFB2
:100750001092A80308954091E502262F30E0240F5F
:10076000311D21323105DCF42091A8032430C9F475
:10077000FC0180E090E0861758F43091E502219169
:10078000DC01AD53BD4FA30FB11D2C930196F3CFE8
:100790008091E502680F6093E50280E0089581E0B2
:1007A000089582E00895CF92DF92EF92FF920F9327
:1007B0001F93CF93DF937C01262F972F8A0180917F
:1007C000A903882391F0C62FD72F6E01C40ED51E22
:1007D000CC15DD0571F06991D701ED91FC91019087
:1007E000F081E02DC7010995F3CF642F822F0E947D
:1007F000AB03C801DF91CF911F910F91FF90EF9054
:10080000DF90CF900895CF93DF931F92CDB7DEB7DF
:1008100069832091A9032223D1F02091CC032032B7
:1008200040F021E030E0FC013383228380E090E05F
:1008300015C08091AA03E82FF0E0E555FC4F99819F
:1008400090838F5F8093AA038093CC0305C061E0FF
:10085000CE0101960E94AB0381E090E00F90DF9102
:10086000CF9108950F931F93CF938C01C62FDC0176
:1008700014968C9114971596ED91FC9116978823F8
:1008800019F08481958102C082819381009741F0A3
:10089000DC01ED91FC910190F081E02D6C2F099528
:1008A000F8018481811103C0E0E0F0E002C0E0E0E3
:1008B000F0E0309711F08C2F099581E090E0CF9116
:1008C0001F910F9108950E94E61DCF93DF9300D0F2
:1008D000CDB7DEB780910101882301F169EA71E0AB
:1008E0008BE596E00E942E0D8DEC93E00E94930123
:1008F000892B81F08DEC93E00E94710189831A822B
:1009000041E050E0BE016F5F7F4F8BE596E00E94B3
:10091000B30CEACF8BE596E00E94480B0F900F9046
:10092000DF91CF9108950F931F93CF93DF9300D062
:10093000CDB7DEB780910101882309F441C069EA8F
:1009400071E085E596E00E942E0D8AE694E00E9413
:100950009301892B81F08AE694E00E9471018983DA
:100960001A8241E050E0BE016F5F7F4F85E596E05F
:100970000E94B30CEACF85E596E00E94480B809177
:10098000590690915A06892BD9F00091550610917D
:10099000560668E571E0C8010E94FF1D892B19F415
:1009A00061E671E009C06DE771E0C8010E94FF1DBA
:1009B000892B31F465E871E08AE694E00E948F0E9D
:1009C0000F900F90DF91CF911F910F9108950E948A
:1009D000A901811105C00E949F01811104C00895E1
:1009E0000E949304F8CF0C9465041F920F920FB6E7
:1009F0000F9211240BB60F922F933F934F935F9357
:100A00006F937F938F939F93AF93BF93EF93FF93D6
:100A10008DEC93E00E94B301FF91EF91BF91AF91F4
:100A20009F918F917F916F915F914F913F912F9106
:100A30000F900BBE0F900FBE0F901F9018951F9236
:100A40000F920FB60F9211240BB60F922F933F9374
:100A50004F935F936F937F938F939F93AF93BF93C6
:100A6000EF93FF938DEC93E00E945801FF91EF917B
:100A7000BF91AF919F918F917F916F915F914F91B6
:100A80003F912F910F900BBE0F900FBE0F901F90B4
:100A900018951F920F920FB60F9211240BB60F925A
:100AA0002F933F934F935F936F937F938F939F9376
:100AB000AF93BF93EF93FF938AE694E00E94B30154
:100AC000FF91EF91BF91AF919F918F917F916F9126
:100AD0005F914F913F912F910F900BBE0F900FBEE2
:100AE0000F901F9018951F920F920FB60F9211241E
:100AF0000BB60F922F933F934F935F936F937F9318
:100B00008F939F93AF93BF93EF93FF938AE694E005
:100B10000E945801FF91EF91BF91AF919F918F91EA
:100B20007F916F915F914F913F912F910F900BBEED
:100B30000F900FBE0F901F901895CF93DF9390E00A
:100B4000FC01E252FF4F2491FC01E254FF4F8491DB
:100B5000882361F190E0880F991FFC01E655FF4F53
:100B6000C591D491FC01EC54FF4FA591B491611152
:100B700009C09FB7F8948881209582238883EC91DF
:100B80002E230BC0623061F49FB7F8943881822F16
:100B9000809583238883EC912E2B2C939FBF06C0D6
:100BA0008FB7F894E8812E2B28838FBFDF91CF91E8
:100BB00008958F929F92AF92BF92CF92DF92EF9261
:100BC000FF926B017C010E9492024B015C01C114F7
:100BD000D104E104F104F1F00E949202DC01CB01A6
:100BE00088199909AA09BB09883E9340A105B10556
:100BF00070F321E0C21AD108E108F10888EE880EEE
:100C000083E0981EA11CB11CC114D104E104F104BD
:100C100019F7DDCFFF90EF90DF90CF90BF90AF90AE
:100C20009F908F9008952FB7F89460914F03709123
:100C3000500380915103909152032FBF08951F924A
:100C40000F920FB60F9211242F933F938F939F9380
:100C5000AF93BF9380914F0390915003A0915103A4
:100C6000B091520330914E0323E0230F2D3720F42F
:100C70000196A11DB11D05C026E8230F0296A11DF6
:100C8000B11D20934E0380934F0390935003A09384
:100C90005103B09352038091530390915403A09158
:100CA0005503B09156030196A11DB11D80935303C6
:100CB00090935403A0935503B0935603BF91AF9103
:100CC0009F918F913F912F910F900FBE0F901F908A
:100CD00018950F931F93CF93DF93EC01162F042FDA
:100CE0001B821A8288EE93E0A0E0B0E08C839D83A3
:100CF000AE83BF838CE091E0998388831F8A1E8A2C
:100D0000198E188E1B8E1A8E1D8E1C8E6E8D6E7F08
:100D100020FB61F96E8F6695617081E06827842FF2
:100D20000E943D0261E0802F0E949D05402F50E00F
:100D3000FA01E252FF4FE491E88BFA01E254FF4FCF
:100D4000E491F0E0EE0FFF1FEC54FF4F859194917A
:100D50009A8B898B60E0812F0E949D058E8D81FD8D
:100D600004C061E0812F0E943D021C87612F70E06A
:100D7000FB01E252FF4FE491ED87FB01E254FF4F8C
:100D8000E491F0E0EE0FFF1FE056FF4F8591949144
:100D90009F878E87DF91CF911F910F9108951F92AA
:100DA0000F920FB60F9211240BB60F922F933F9311
:100DB0004F935F936F937F938F939F93AF93BF9363
:100DC000EF93FF93E0914C03F0914D03309709F4BA
:100DD00051C0968DA685B785858591FF04C09C91ED
:100DE000892329F447C09C91892309F043C0A38932
:100DF000B4899C918589809589238C93868997896C
:100E00000197F1F7608D718DA685B785558538E01E
:100E100020E0CB010197F1F7822F90E0959587951F
:100E2000282F4C91452309F02068315091F7868D89
:100E300081FD209580914A0390E001968F73992758
:100E400030914B03381749F0A0914A03B0E0A65FF8
:100E5000BC4F2C9380934A0303C0868D8160868F9C
:100E6000828D938D0197F1F7A389B4899C9185892F
:100E7000892B8C93FF91EF91BF91AF919F918F91AF
:100E80007F916F915F914F913F912F910F900BBE8A
:100E90000F900FBE0F901F9018951F920F920FB6D4
:100EA0000F9211248F930FB6F894A895809160004B
:100EB000886180936000109260000FBE8F910F9048
:100EC0000FBE0F901F9018951F920F920FB60F92A2
:100ED00011240BB60F922F933F934F935F936F9311
:100EE0007F938F939F93AF93BF93EF93FF938091E3
:100EF000B900887F803609F49CC068F5883209F40F
:100F00005BC090F4803109F454C038F4882309F4AC
:100F1000F6C0883009F44DC0F6C0883109F44CC0E1
:100F2000803209F45DC0EFC0803409F468C048F431
:100F3000803309F455C0883309F0E5C08093A603D7
:100F4000D8C0803509F44FC0883509F45DC08834B5
:100F500009F0D9C0D6C0883909F4C7C0A8F48837C9
:100F600009F467C038F4883609F463C0803709F49F
:100F700060C0C9C0883809F4B8C0803909F45FC0BE
:100F8000803809F0C0C05BC0803B09F486C038F4EB
:100F9000803A09F466C0883A09F47FC0B4C0803C46
:100FA00009F4A7C0883C09F4A4C0883B09F48AC0AE
:100FB000AAC08091830310C09091A5038091A403DF
:100FC000981770F5E091A50381E08E0F8093A5033B
:100FD000F0E0EC57FC4F80818093BB0085EC86C02D
:100FE0008093A6038EC0E091A50381E08E0F8093CD
:100FF000A5038091BB00F0E0EC57FC4F80839091FB
:10100000A5038091A4036EC0E091A50381E08E0F3B
:101010008093A5038091BB00F0E0EC57FC4F8083E8
:101020008091A70381116DC081E08093820384EADF
:1010300061C083E08093A80310920903CFCF809111
:101040000903803208F051C0E091090381E08E0F5E
:10105000809309038091BB00F0E0E751FD4F80834E
:10106000BDCF85EC8093BC001092A803809109034A
:10107000803230F4E0910903F0E0E751FD4F108237
:101080006091090370E0E091E702F091E80289EED7
:1010900092E009951092090336C084E08093A8037A
:1010A0001092E6021092E502E091E302F091E40270
:1010B00009958091E502811105C081E08093E502E8
:1010C0001092C302E091E60281E08E0F8093E60267
:1010D000F0E0ED53FD4F80818093BB009091E602DC
:1010E0008091E502981708F479CF85E88093BC00D9
:1010F0000AC085EC8093BC001092A80304C0109233
:10110000A6030E94A103FF91EF91BF91AF919F9120
:101110008F917F916F915F914F913F912F910F90A0
:101120000BBE0F900FBE0F901F9018951F920F923D
:101130000FB60F9211240BB60F922F933F934F933C
:101140005F936F937F938F939F93AF93BF93EF932F
:10115000FF938091C60681116DC08091C706909162
:10116000C806009779F0DC01ED91FC910480F581CF
:10117000E02D0995892B09F45DC08091C7069091F7
:10118000C80612C08091C9069091CA06DC01ED9193
:10119000FC910480F581E02D0995892B09F44AC062
:1011A0008091C9069091CA06DC01ED91FC91068000
:1011B000F781E02D09958A3049F590914F06E0912D
:1011C0004D06F0914E06E90FF11D108220914D065B
:1011D00030914E06B5E0253D3B0739F44BE555E02F
:1011E00050934E0640934D0608C025ED35E03093F0
:1011F0004E0620934D062BE535E03093D405209321
:10120000D30510924F0691E090935006E0914D0661
:10121000F0914E0690914F0621E0290F20934F0642
:10122000E90FF11D808380914F06883718F087E71A
:1012300080934F06FF91EF91BF91AF919F918F9156
:101240007F916F915F914F913F912F910F900BBEC6
:101250000F900FBE0F901F901895CF93DF931092B1
:101260005705109258051092590510925A05109280
:10127000150510921605109217051092180568EBC7
:101280007BE080E090E00E948C0C8AE694E09093F2
:1012900056058093550540E052EC61E070E00E94F5
:1012A000E10A0E941306609315057093160580935A
:1012B00017059093180568E971E0809155059091A4
:1012C00056050E94310E6AE070E080E090E00E94D6
:1012D0008C0C81E08093290561E08FE00E949D05E0
:1012E00061E08FE00E943D0240E05BE460E070E07E
:1012F0008AE694E00E94E10A40E05BE460E070E08E
:101300008DEC93E00E94E10AE091C706F091C806D7
:10131000309709F477C0138E128E118E108E178AB3
:10132000168A8DE991E0958F848F9485903208F02C
:1013300040C02DEB30E0378B268B2BE931E0318F2D
:10134000208F2CE231E0338F228F2091680098307B
:1013500030F0903130F0983130F081E005C082E01B
:1013600003C088E001C084E0822B809368008485FC
:10137000883038F0803140F0883148F02BE630E09A
:1013800008C02CE630E005C023E730E002C02DE6BF
:1013900030E0348B238B877021E030E0A90102C05C
:1013A000440F551F8A95E2F7458B848D958D0197E3
:1013B000F1F7828D938D892B79F1A0914C03B09137
:1013C0004D03AE17BF0741F1109751F05396CD91E1
:1013D000DC915497988155968C91809589238883C8
:1013E000868D8E7F868F10924A0310924B03F09366
:1013F0004D03E0934C03A389B4899C918589892B83
:101400008C930AC040E855E260E070E08091C90624
:101410009091CA060E94E10A6AE070E080E090E0E4
:101420000E94D9058091C7069091C8066AEA71E0CA
:10143000009721F48091C9069091CA060E948F0EF0
:1014400080910001882359F08FEA87BD80916E005A
:10145000826080936E0081E08093000107C08091DC
:101460006E008D7F80936E001092000168EE73E035
:1014700080E090E00E94D90560E08FE00E943D028C
:10148000C1E0C093010110926103109260031092B9
:10149000AA031092CC031092A803C093A703109242
:1014A000820361E081E10E943D0261E080E10E94EF
:1014B0003D028091B9008E7F8093B9008091B90080
:1014C0008D7F8093B90088E48093B80085E4809391
:1014D000BC0080917506C093A9038093CB03109242
:1014E000AA031092CC0361EE87E095E00E9403040A
:1014F00060E087E095E00E9403040E945F0B6AE0D1
:1015000070E080E090E00E94D90580917506C0935C
:10151000A9038093CB031092AA031092CC0361E03D
:101520000E94BC0B109261038093600387E095E0FA
:101530000E94C702D82F0E945F0BD23321F084E0B3
:101540008093570302C0C0935703DF91CF91089552
:101550000F931F93CF93DF93EC01888199810097BC
:1015600029F02A813B812617370788F48B016F5FAA
:101570007F4F0E94FD1C009761F0998388831B8335
:101580000A832C813D81232B11F4FC01108281E020
:1015900001C080E0DF91CF911F910F910895CF930B
:1015A000DF93EC0188819981009711F00E94651CFE
:1015B000198218821D821C821B821A82DF91CF91B0
:1015C0000895CF92DF92EF92FF920F931F93CF93E4
:1015D000DF93EC016A017B01E889F98982E080836D
:1015E0004115514E61057105B1F060E079E08DE380
:1015F00090E0A70196010E94202489019A010150E0
:1016000011092109310936952795179507959801F4
:1016100001151041A8F0E889F989108260E874E8A2
:101620008EE190E0A70196010E942024DA01C90111
:101630000197A109B109B695A795979587959C0142
:10164000EC85FD853083EE85FF852083188EEC893F
:10165000FD8986E08083EA89FB89808180618083BF
:10166000EA89FB89808188608083EA89FB8980819F
:1016700080688083EA89FB8980818F7D8083DF9108
:10168000CF911F910F91FF90EF90DF90CF90089531
:10169000CF93DF93FC0144815581608171818AE69B
:1016A00094E00E944A0DEC0167EA71E08AE694E05A
:1016B0000E94310E8C0F9D1FDF91CF9108952091D4
:1016C000CC039091CB03213208F04AC08091A8034B
:1016D0008111FCCF32E03093A80331E03093A703AF
:1016E0003FEF3093A6031092A5032093A403ABEA27
:1016F000B3E044E853E0FA013E2F341B321718F4EC
:101700003D913193F9CF1092830320918303990F78
:10171000922B9093830390918203913061F4109205
:101720008203909183039093BB009091BC0093FD42
:10173000F8CF95EC01C095EE9093BC009091A80372
:101740009230E1F39091A6039F3F79F08091A60338
:10175000803241F08091A603803331F084E005C0EF
:1017600081E003C082E001C083E01092AA031092DE
:10177000CC031092A90308959091A8039111FCCF76
:1017800091E09093A8039093A7032FEF2093A603D3
:101790001092A503260F2093A403909383039091A6
:1017A0008303880F892B8093830380918203813088
:1017B00061F410928203809183038093BB00809137
:1017C000BC0083FDF8CF85EC01C085EE8093BC00A2
:1017D0008091A8038130E1F38091A503861710F46E
:1017E0006091A503A4E8B3E022E633E0F9018E2F6F
:1017F000821B861718F48D918193F9CF862F089557
:10180000AF92BF92CF92DF92EF92FF920F931F930E
:10181000CF93DF937B018A01E90190917506DD2466
:10182000D394D092A9039093CB031092AA03109261
:10183000CC03682F87E095E00E9403040E945F0BB1
:1018400061E070E080E090E00E94D9051092760699
:1018500010927706109278061092790610927A0606
:1018600010927B0680917506D092A9038093CB03DA
:101870001092AA031092CC0366E00E94BC0BB82E13
:10188000109261038093600356E7C52E56E0D52E73
:1018900066E0A62EAC0C80916103B81651F0AC1432
:1018A00041F087E095E00E94C702F60181936F0145
:1018B000F2CF0E945F0B8091760690E0982F8827E8
:1018C000F7019183808320917706822B9183808317
:1018D0008091780690E0982F8827F8019183808383
:1018E00020917906822B9183808380917A0690E003
:1018F000982F88279983888320917B06822B998350
:101900008883DF91CF911F910F91FF90EF90DF902F
:10191000CF90BF90AF9008958F929F92AF92BF9259
:10192000CF92DF92EF92FF926B017C010E9413062F
:101930004B015C01C60ED71EE81EF91E0E9413065D
:10194000681579058A059B0528F0C616D706E806AE
:10195000F906A0F7FF90EF90DF90CF90BF90AF9087
:101960009F908F900895EF92FF920F931F93CF93C4
:10197000DF93FC01248135816115710511F480E04C
:1019800019C041155105A9F07B01EC018A01020F34
:10199000131FB8010E94A80A882389F3288139817E
:1019A0008C819D81B701820F931F0E94081E1D83A9
:1019B0000C8381E0DF91CF911F910F91FF90EF9009
:1019C0000895CF93DF93EC016115710561F0FB0180
:1019D00001900020E9F73197AF01461B570B0E9499
:1019E000B30C811103C0CE010E94CF0ACE01DF915A
:1019F000CF910895CF93DF93EC01FB014481558192
:101A0000608171810E94B30C811103C0CE010E94DC
:101A1000CF0ACE01DF91CF910895EF92FF920F93FD
:101A20001F93CF93DF93EC017B018A01BA010E94DF
:101A3000A80A811104C0CE010E94CF0A07C01D83ED
:101A40000C83B701888199810E94081ECE01DF9125
:101A5000CF911F910F91FF90EF900895CF93DF9357
:101A6000EC016115710559F0FB0101900020E9F7C7
:101A70003197AF01461B570B0E940D0D02C00E940B
:101A8000CF0ACE01DF91CF910895FC018081918131
:101A90000C94651CCF92DF92EF92FF920F931F93ED
:101AA000CF93DF936C017A018B01C0E0D0E0CE15BB
:101AB000DF0589F0D8016D918D01D601ED91FC9182
:101AC0000190F081E02DC6010995892B11F47E016A
:101AD00002C02196ECCFC701DF91CF911F910F91EA
:101AE000FF90EF90DF90CF900895EF92FF920F93C9
:101AF0001F93CF93DF93CDB7DEB7A1970FB6F894BE
:101B0000DEBF0FBECDBF7C01CB01BA01F701118250
:101B10001082138212821582148242E0420F8E01DB
:101B20000F5F1F4F0E94381EBC01C7010E942E0D7F
:101B3000A1960FB6F894DEBF0FBECDBFDF91CF9157
:101B40001F910F91FF90EF900895EF92FF920F93E6
:101B50001F93CF93DF93CDB7DEB7A1970FB6F8945D
:101B6000DEBF0FBECDBF7C01CB01BA01F7011182F0
:101B70001082138212821582148242E0420F8E017B
:101B80000F5F1F4F0E94381EBC01C7010E942E0D1F
:101B9000A1960FB6F894DEBF0FBECDBFDF91CF91F7
:101BA0001F910F91FF90EF9008950F931F93CF9384
:101BB000DF93CDB7DEB729970FB6F894DEBF0FBE1F
:101BC000CDBF8C01862FF801118210821382128200
:101BD0001582148250E0BE016F5F7F4F90E00E943B
:101BE000C71EBE016F5F7F4FC8010E942E0D299650
:101BF0000FB6F894DEBF0FBECDBFDF91CF911F911E
:101C00000F910895FB01DC0111961C921E92139610
:101C10001C921E92129715961C921E92149786176C
:101C2000970749F0608171816115710521F0448148
:101C300055810C940D0D0895FC01118210821382C0
:101C40001282158214826115710551F0FB01019019
:101C50000020E9F73197AF01461B570B0C940D0D8F
:101C600008956115710579F0FB0101900020E9F7F5
:101C70003197AF01461B570BDC01ED91FC910280BF
:101C8000F381E02D099480E090E008954F925F92F7
:101C90006F927F92EF92FF920F931F93CF93DF93F8
:101CA000CDB7DEB7A1970FB6F894DEBF0FBECDBF9C
:101CB0007C01FA01CB0119A2223008F42AE08E013E
:101CC0000F5D1F4F422E512C612C712CBF01A301BF
:101CD00092010E942024F901CA01015011096A30C1
:101CE00014F4605D01C0695CD8016C93232B242B34
:101CF000252B61F7B801C7010E94310EA1960FB6DE
:101D0000F894DEBF0FBECDBFDF91CF911F910F9131
:101D1000FF90EF907F906F905F904F9008950F939A
:101D20001F93CF93DF93EC010E94310E8C0167EA81
:101D300071E0CE010E94310E800F911FDF91CF9193
:101D40001F910F91089585E596E00E94450D8BE562
:101D500096E00E94450D84EF96E00E94890383E19E
:101D600097E00C948903CF93DF93CDB7DEB7AF979D
:101D70000FB6F894DEBF0FBECDBF789484B58260F5
:101D800084BD84B5816084BD85B5826085BD85B51F
:101D9000816085BD80916E00816080936E0010929D
:101DA0008100809181008260809381008091810018
:101DB00081608093810080918000816080938000A9
:101DC0008091B10084608093B1008091B000816007
:101DD0008093B00080919100826080939100809107
:101DE0009100816080939100809190008160809348
:101DF000900080917A00846080937A0080917A00CC
:101E0000826080937A0080917A00816080937A006A
:101E100080917A00806880937A001092C1000E94BD
:101E20002D092224239484E6C82ED12CE12CF12CF8
:101E30000E941306672B682B692B41F40E9413063E
:101E4000623071058105910508F408C10E941306EE
:101E500060935C0370935D0380935E0390935F03D4
:101E6000009158031091590320915A0330915B035C
:101E7000601771078207930740F4609358037093CB
:101E8000590380935A0390935B0300915803109178
:101E9000590320915A0330915B034B015C01801A76
:101EA000910AA20AB30A950184010A3F110521058E
:101EB000310508F4D3C0609358037093590380939D
:101EC0005A0390935B0384EF91E0A0E0B0E080932D
:101ED000210590932205A0932305B0932405109229
:101EE000250510922605109227051092280580914D
:101EF000190590911A05A0911B05B0911C058093BE
:101F00001D0590931E05A0931F05B09320050E9408
:101F100013066093190570931A0580931B0590931F
:101F20001C050E9413066093150570931605809397
:101F30001705909318050E9413064B015C016BEB8B
:101F400071E080915505909156050E94310E2AE06E
:101F500041E050E060E070E08091550590915605B9
:101F60000E94460E62EC71E08091550590915605F5
:101F70000E94310E2AE0B501A4018091550590918F
:101F800056050E94460E64EC71E0809155059091D3
:101F900056050E94310E8091190590911A05A09165
:101FA0001B05B0911C05B501A401481B590B6A0B18
:101FB0007B0B2AE080915505909156050E94460EB4
:101FC00064EC71E080915505909156050E94310EA8
:101FD0004091190550911A0560911B0570911C05DF
:101FE00080911D0590911E05A0911F05B0912005BF
:101FF000481B590B6A0B7B0B2AE080915505909189
:1020000056050E94460E66EC71E080915505909150
:1020100056050E94310E0E941306AB01BC012AE056
:1020200080915505909156050E94460E68EC71E02E
:1020300080915505909156050E948F0E65E070E0E5
:1020400080E090E00E948C0C0E94130660931905BA
:1020500070931A0580931B0590931C05809157037C
:10206000823011F40C94A41830F4882391F081305C
:10207000A1F00C94C518833011F40C94BE18843070
:1020800011F00C94C518109201016CEA72E00C94E6
:10209000C1180E942D090C94C5188093010130903D
:1020A0005006332011F40C94C5181092500600917C
:1020B000D3051091D405F80101900020E9F731977C
:1020C000CF01801B910BAC0144505109F801E40F82
:1020D000F51F20812A32E9F5800F911FFC0133970B
:1020E0002081203354F02A3314F4205307C03FEBEF
:1020F000320F363010F4275301C020E0A0E12A9FB0
:1021000090011124FC0132978081803354F08A338E
:1021100014F4805307C09FEB980F963010F4875348
:1021200001C080E0280F311D62E0862F90E0841707
:10213000950758F4F801E80FF91F8081082E000C6C
:10214000990B282739276F5FF0CF232B11F00C94C0
:10215000C5186FEC71E0C8010E941E1E892B09F49E
:102160006FC26CE270E0C8010E94F41D8C010F5F29
:102170001F4FC8010E94581E4B015C010E943F1B6B
:102180002B013C0120E137E240E050E00E94202496
:1021900020937C06A70196010E94202420937D06AF
:1021A000C301B201A70196010E94202460937E061C
:1021B00020E030E040E85FE3C501B4010E94791BF4
:1021C00020E030E04AE754E40E9452230E943F1B83
:1021D00070938306609382066CE270E0C8010E94EF
:1021E000F41D5C018C010F5F1F4FFC0181818C325B
:1021F00009F4A9C042E050E0B801CE0101960E9466
:102200000F1E1B82CE0101960E947A1E9B01AC011B
:1022100060E876E988E990E00E9410242B013C01F7
:10222000B5016D5F7F4F42E050E0CE0101960E9404
:102230000F1E0B5F1F4F44E050E0B801CE01039624
:102240000E940F1E1F82CE0101960E947A1E9B01E2
:10225000AC01A2E3B0E00E94422423E030E040E081
:1022600050E00E941D1A49015A01D301C201820F98
:10227000931FA41FB51F80938C0690938D06A09387
:102280008E06B0938F06C301B20120EA36E841E022
:1022900050E00E941D1ACA01B9010E94F3222B01CD
:1022A0003C01C501B4010E94F3222CE933E549EC5D
:1022B00056E30E9452239B01AC01C301B2010E946C
:1022C0005A1A2B013C016093840670938506809313
:1022D00086069093870620E030E048EC52E40E94A6
:1022E000C61A0E94381B4B015C0184E6889DB00130
:1022F000899D700D1124072E000C880B990B0E94EC
:10230000F3229B01AC01C301B2010E94591A20E0E3
:1023100030E040E752E40E94C61A2B013C01B401B0
:10232000990C880B990B0E94F3229B01AC01C3010D
:10233000B2010E945A1A6093940670939506809396
:102340009606909397066CE270E0C8010E94F41D17
:10235000FC019C012F5F3F4F81818C3201F183355D
:1023600089F48091940690919506A0919606B0917B
:102370009706B0588093940690939506A09396067E
:10238000B093970691819E3411F0933519F4909390
:10239000B40605C09C3209F0F8C61092B4066CE28F
:1023A00070E0C9010E94F41D5C018C010F5F1F4F9A
:1023B000DC0111968C918C3209F4A9C043E050E005
:1023C000B801CE0101960E940F1E1C82CE0101961B
:1023D0000E947A1E9B01AC0160E876E988E990E0F2
:1023E0000E9410242B013C01B5016C5F7F4F42E03D
:1023F00050E0CE0101960E940F1E0A5F1F4F44E07D
:1024000050E0B801CE0103960E940F1E1F82CE013C
:1024100001960E947A1E9B01AC01A2E3B0E00E94EB
:10242000422423E030E040E050E00E941D1A4901C0
:102430005A01D301C201820F931FA41FB51F8093BD
:10244000900690939106A0939206B0939306C301D1
:10245000B20120EA36E841E050E00E941D1ACA01AC
:10246000B9010E94F3222B013C01C501B4010E9475
:10247000F3222CE933E549EC56E30E9452239B01F9
:10248000AC01C301B2010E945A1A2B013C016093B6
:1024900088067093890680938A0690938B0620E0C5
:1024A00030E048EC52E40E94C61A0E94381B4B01EF
:1024B0005C0184E6889DB001899D700D1124072E72
:1024C000000C880B990B0E94F3229B01AC01C30105
:1024D000B2010E94591A20E030E040E752E40E9425
:1024E000C61A2B013C01B401990C880B990B0E9470
:1024F000F3229B01AC01C301B2010E945A1A6093FE
:1025000098067093990680939A0690939B066CE2C6
:1025100070E0C8010E94F41DFC019C012F5F3F4F39
:1025200081818C3201F1873589F4809198069091F0
:102530009906A0919A06B0919B06B0588093980690
:1025400090939906A0939A06B0939B069181973534
:1025500011F0953419F49093B50605C09C3209F03A
:1025600014C61092B5066CE270E0C9010E94F41D19
:102570008C010F5F1F4FFC0181818C3229F0C80153
:102580000E945C1E8093B8066CE270E0C8010E9455
:10259000F41D8C010F5F1F4FDC0111968C918C3262
:1025A00029F0C8010E945C1E8093B9066CE270E0BD
:1025B000C8010E94F41D8C010F5F1F4FFC01818137
:1025C0008C3259F0C8010E94581E6093B006709377
:1025D000B1068093B2069093B3066CE270E0C80136
:1025E0000E94F41D8C010F5F1F4FDC0111968C912E
:1025F0008C3259F0C8010E94581E6093A006709357
:10260000A1068093A2069093A3066CE270E0C80135
:102610000E94F41D6CE270E001960E94F41DFC0122
:1026200021812C3209F47DC201960E94581E6093CC
:102630009C0670939D0680939E0690939F0671C2A0
:1026400066ED71E0C8010E941E1E892B09F49DC52C
:102650006CE270E0C8010E94F41D8C010F5F1F4FF7
:10266000C8010E94581E4B015C010E943F1B2B01B8
:102670003C0120E137E240E050E00E94202420931A
:102680007C06A70196010E94202420937D06C301A9
:10269000B201A70196010E94202460937E0620E0EB
:1026A00030E040E85FE3C501B4010E94791B20E0FF
:1026B00030E04AE754E40E9452230E943F1B70938B
:1026C0008306609382066CE270E0C8010E94F41DEC
:1026D000DC0111962C91213419F42092B70605C023
:1026E000263509F052C51092B7066CE270E00196EB
:1026F0000E94F41D5C018C010F5F1F4FFC01818162
:102700008C3209F4A9C042E050E0B801CE01019634
:102710000E940F1E1B82CE0101960E947A1E9B0111
:10272000AC0160E876E988E990E00E9410242B0172
:102730003C01B5016D5F7F4F42E050E0CE01019654
:102740000E940F1E0B5F1F4F44E050E0B801CE0106
:1027500003960E940F1E1F82CE0101960E947A1ED0
:102760009B01AC01A2E3B0E00E94422423E030E0F0
:1027700040E050E00E941D1A49015A01D301C201F4
:10278000820F931FA41FB51F80938C0690938D0614
:10279000A0938E06B0938F06C301B20120EA36E8FB
:1027A00041E050E00E941D1ACA01B9010E94F322C3
:1027B0002B013C01C501B4010E94F3222CE933E551
:1027C00049EC56E30E9452239B01AC01C301B201C4
:1027D0000E945A1A2B013C0160938406709385066F
:1027E000809386069093870620E030E048EC52E420
:1027F0000E94C61A0E94381B4B015C0184E6889D2A
:10280000B001899D700D1124072E000C880B990BC7
:102810000E94F3229B01AC01C301B2010E94591A2C
:1028200020E030E040E752E40E94C61A2B013C0150
:10283000B401990C880B990B0E94F3229B01AC0107
:10284000C301B2010E945A1A6093940670939506D0
:1028500080939606909397066CE270E0C8010E9400
:10286000F41DFC019C012F5F3F4F81818C3201F1EF
:10287000833589F48091940690919506A0919606EF
:10288000B0919706B0588093940690939506A093C4
:102890009606B093970691819E3411F0933519F402
:1028A0009093B40605C09C3209F06FC41092B40630
:1028B0006CE270E0C9010E94F41D5C018C010F5FA5
:1028C0001F4FDC0111968C918C3209F4A9C043E0B2
:1028D00050E0B801CE0101960E940F1E1C82CE016D
:1028E00001960E947A1E9B01AC0160E876E988E9B6
:1028F00090E00E9410242B013C01B5016C5F7F4FDA
:1029000042E050E0CE0101960E940F1E0A5F1F4F69
:1029100044E050E0B801CE0103960E940F1E1F82D2
:10292000CE0101960E947A1E9B01AC01A2E3B0E0A9
:102930000E94422423E030E040E050E00E941D1A53
:1029400049015A01D301C201820F931FA41FB51F71
:102950008093900690939106A0939206B09393066D
:10296000C301B20120EA36E841E050E00E941D1A9E
:10297000CA01B9010E94F3222B013C01C501B40137
:102980000E94F3222CE933E549EC56E30E945223DE
:102990009B01AC01C301B2010E945A1A2B013C01F8
:1029A000609388067093890680938A0690938B06BD
:1029B00020E030E048EC52E40E94C61A0E94381B26
:1029C0004B015C0184E6889DB001899D700D112446
:1029D000072E000C880B990B0E94F3229B01AC017F
:1029E000C301B2010E94591A20E030E040E752E4EE
:1029F0000E94C61A2B013C01B401990C880B990B5B
:102A00000E94F3229B01AC01C301B2010E945A1A39
:102A1000609398067093990680939A0690939B060C
:102A20006CE270E0C8010E94F41DFC019C012F5F64
:102A30003F4F81818C3201F1873589F4809198066E
:102A400090919906A0919A06B0919B06B0588093F8
:102A5000980690939906A0939A06B0939B0691814D
:102A6000973511F0953419F49093B50605C09C3252
:102A700009F08BC31092B5066CE270E0C9010E94A8
:102A8000F41D8C010F5F1F4FFC0181818C3259F0C6
:102A9000C8010E94581E6093A4067093A5068093F7
:102AA000A6069093A7066CE270E0C8010E94F41D90
:102AB0008C010F5F1F4FDC0111968C918C3259F005
:102AC000C8010E94581E6093A8067093A9068093BF
:102AD000AA069093AB066CE270E0C8010E94F41D58
:102AE000FC0121812C32E9F001960E94581E0E94BF
:102AF0003F1B4B015C0120E137E240E050E00E94C7
:102B0000202420938106A70196010E94202420936F
:102B10008006C501B401A70196010E94202460939C
:102B20007F06332009F431C38091B906843020F444
:102B300082E08093570329C320917D06809182060D
:102B4000909183061DA21CA21FA21EA219A618A660
:102B50004AE0BE016F5F7F4F2A3070F50E94D21E9F
:102B6000BE016F5F7F4FCE0184960E942E0D4AE01A
:102B700060917E06CE014E960E94D50D4AE060918E
:102B80007D06CE0148960E94D50D4AE060917C06F4
:102B9000CE0142960E94D50D6DED71E0CE010196F9
:102BA0000E941C0EBE016E5E7F4FCE0101960E94F8
:102BB000FA0C65EE71E02DC00E94D21EBE016F5F5F
:102BC0007F4FCE0184960E942E0D4AE060917E06D2
:102BD000CE014E960E94D50D4AE060917D06CE0151
:102BE00048960E94D50D4AE060917C06CE0142963F
:102BF0000E94D50D6DED71E0CE0101960E941C0E74
:102C0000BE016E5E7F4FCE0101960E94FA0C64EC0D
:102C100071E00E94E10CBE01685E7F4F0E94FA0CD9
:102C200064EC71E00E94E10CBE01625E7F4F0E9485
:102C3000FA0C6DE972E00E94E10CBE016C5D7F4F01
:102C40000E94FA0CBC01CE018A960E94020ECE01AF
:102C500001960E94450DCE0142960E94450DCE017F
:102C600048960E94450DCE014E960E94450DCE011C
:102C700084960E94450DCE018A960E94480BCE0193
:102C80008A960E94450D4AE060917F06CE014E96DD
:102C90000E94D50D4AE060918006CE0148960E94C0
:102CA000D50D4AE060918106CE0142960E94D50D75
:102CB00068EE71E0CE0101960E941C0EBE016E5EB0
:102CC0007F4FCE0101960E94FA0C6FEE71E00E94D8
:102CD000E10CBE01685E7F4F0E94FA0C6FEE71E05E
:102CE0000E94E10CBE01625E7F4F0E94FA0CBC01A3
:102CF000CE0184960E94020ECE0101960E94450DDF
:102D0000CE0142960E94450DCE0148960E94450D87
:102D1000CE014E960E94450DCE0184960E94480B2E
:102D2000CE0184960E94450D8091B5061DA21CA27D
:102D30001FA21EA219A618A689831A82BE016F5F60
:102D40007F4FCE0184960E942E0D409188065091AF
:102D5000890660918A0670918B0622E0CE014E961C
:102D60000E94A50D8091B406198E188E1B8E1A8EA6
:102D70001D8E1C8E89831A82BE016F5F7F4FCE012C
:102D800048960E942E0D40918406509185066091D0
:102D900086067091870622E0CE0142960E94A50D1C
:102DA00061EF71E0CE0101960E941C0EBE016E5EC5
:102DB0007F4FCE0101960E94FA0CBE01685E7F4FE4
:102DC0000E94FA0C6CEF71E00E94E10CBE01625EA1
:102DD0007F4F0E94FA0CBE016C5D7F4F0E94FA0C7F
:102DE000BC01CE018A960E94020ECE0101960E947D
:102DF000450DCE0142960E94450DCE0148960E9497
:102E0000450DCE014E960E94450DCE0184960E943E
:102E1000450DCE018A960E94480BCE018A960E94EB
:102E2000450D4091A4065091A5066091A6067091AB
:102E3000A70622E0CE0142960E94A50D6FEF71E039
:102E4000CE0101960E941C0EBE016E5E7F4FCE0128
:102E500001960E94FA0CBC01CE0148960E94020E17
:102E6000CE0101960E94450DCE0142960E94450D6D
:102E7000CE0148960E94480BCE0148960E94450D0F
:102E80004091A0065091A1066091A2067091A30600
:102E900022E0CE0142960E94A50D6FE072E0CE01C5
:102EA00001960E941C0EBE016E5E7F4FCE01019600
:102EB0000E94FA0CBC01CE0148960E94020ECE017F
:102EC00001960E94450DCE0142960E94450DCE010D
:102ED00048960E94480BCE0148960E94450D4AE054
:102EE0006091B906CE0142960E94D50D6AE172E06A
:102EF000CE0101960E941C0EBE016E5E7F4FCE0178
:102F000001960E94FA0CBC01CE0148960E94020E66
:102F1000CE0101960E94450DCE0142960E94450DBC
:102F2000CE0148960E94480BCE0148960E94450D5E
:102F300067E272E08DEC93E00E94310E25E636E008
:102F400043E656E061E676E080E50E94000C21E76A
:102F500036E04FE656E06DE676E080E40E94000C35
:102F600023E736E045E656E063E676E085E50E9435
:102F7000000C6091610670916206072E000C880BB0
:102F8000990B0E94F32220E030E040E251E40E94DD
:102F9000C61AAB01BC0122E0CE0142960E94750D1B
:102FA0006FE372E0CE0101960E941C0EBE016E5EC0
:102FB0007F4FCE0101960E94FA0CBC01CE014896CB
:102FC0000E94020ECE0101960E94450DCE0142964E
:102FD0000E94450DCE0148960E94480BCE014896AE
:102FE0000E94450D6091630670916406072E000CE7
:102FF000880B990B0E94F32220E030E040E251E47C
:103000000E94C61AAB01BC0122E0CE0142960E948A
:10301000750D69E472E0CE0101960E941C0EBE019E
:103020006E5E7F4FCE0101960E94FA0CBC01CE016C
:1030300048960E94020ECE0101960E94450DCE01D7
:1030400042960E94450DCE0148960E94480BCE0143
:1030500048960E94450D6091650670916606072EA0
:10306000000C880B990B0E94F32220E030E040E234
:1030700051E40E94C61AAB01BC0122E0CE01429687
:103080000E94750D61E572E0CE0101960E941C0E52
:10309000BE016E5E7F4FCE0101960E94FA0CBC010C
:1030A000CE0148960E94020ECE0101960E94450D67
:1030B000CE0142960E94450DCE0148960E94480BD3
:1030C000CE0148960E94450D60917306709174067A
:1030D000072E000C880B990B0E94F32220E030E0B1
:1030E00040E251E40E94C61AAB01BC0122E0CE01CD
:1030F00042960E94750D68E572E0CE0101960E942D
:103100001C0EBE016E5E7F4FCE0101960E94FA0C2E
:10311000BC01CE0148960E94020ECE0101960E948B
:10312000450DCE0142960E94450DCE0148960E9463
:10313000480BCE0148960E94450D68EE73E080E092
:1031400090E00E94D90521C06FE572E08AE694E024
:103150000E948F0E109201018091B906843028F0F0
:103160002092570366E872E00CC068E873E180E0E3
:1031700090E00E94D9056FE972E003C0109201014E
:1031800004C08AE694E00E948F0E0E94E7040C942B
:10319000180FEDECF3E01382128288EE93E0A0E0CA
:1031A000B0E084839583A683B7832CE131E031833B
:1031B00020834DEC50E0558744874CEC50E0578716
:1031C000468748EC50E0518B408B49EC50E0538BE4
:1031D000428B4AEC50E0558B448B4EEC50E0578BC1
:1031E000468B118E128E138E148EEAE6F4E0138253
:1031F000128284839583A683B7833183208325EC51
:1032000030E03587248724EC30E03787268720ECB0
:1032100030E0318B208B21EC30E0338B228B22ECA1
:1032200030E0358B248B26EC30E0378B268B118EEB
:10323000128E138E148EE7E0F5E0138212828483DF
:103240009583A683B7838CE291E091838083E3E149
:10325000F5E0168217821086118612861386148670
:10326000158616861786108A118A128A138A148A7E
:10327000158A20E041E060E083E197E00E94690662
:1032800020E047E166E184EF96E00E946906EBECFE
:10329000F6E084EF96E09183808313821282158298
:1032A0001482118610862CE431E03783268381E076
:1032B0008287F487E387108A178636872587118AE5
:1032C000F38BE28B2AE030E0358B248B2EE130E06B
:1032D000378B268B318F208F2CE231E0338F228F7A
:1032E0002FEF3FEF358F248F868F178E23E030E04E
:1032F00031A320A322E030E033A322A384A315A2AC
:1033000016A217A210A661E083E00E949D05ECE7DB
:10331000F6E01092CA061092C9061092500610925A
:10332000C60610924F0685ED95E090934E06809369
:103330004D068BE595E09093D4058093D3051092CC
:10334000B90614AE15821482138212821182108281
:1033500012AE11AE10AE13AE1782168214AA15AAC1
:1033600016AA17AA10AA11AA12AA13AA14A615A679
:1033700016A617A610A611A612A613A614A215A289
:1033800016A217A210A211A212A213A214861586C9
:1033900016861786108611861286138683E197E0BB
:1033A0009093C8068093C706E1E6F6E089E1848B36
:1033B0001582148213821282118210821386128661
:1033C0001186108617821682118A108A1786168631
:1033D00015861486138A128A158A168A178A108E01
:1033E000118E128E69EA71E08BE596E00E941C0E48
:1033F00069EA71E085E596E00E941C0E0E941306C2
:10340000609351067093520680935306909354062E
:10341000089597FB072E16F4009407D077FD09D086
:103420000E94451A07FC05D03EF4909581959F4F68
:103430000895709561957F4F0895052E97FB1EF4B2
:1034400000940E94341A57FD07D00E94202407FCE4
:1034500003D04EF40C94341A509540953095219534
:103460003F4F4F4F5F4F08959095809570956195B0
:103470007F4F8F4F9F4F0895EE0FFF1F0024001CBA
:103480000BBE0790F691E02D0994AA1BBB1B51E1DE
:1034900007C0AA1FBB1FA617B70710F0A61BB70BC4
:1034A000881F991F5A95A9F780959095BC01CD0169
:1034B00008955058BB27AA270E94711A0C94D6234E
:1034C0000E94C82338F00E94CF2320F039F49F3F98
:1034D00019F426F40C94C5230EF4E095E7FB0C9444
:1034E000BF23E92F0E94E72358F3BA176207730737
:1034F0008407950720F079F4A6F50C9409240EF4BE
:10350000E0950B2EBA2FA02D0B01B90190010C01F3
:10351000CA01A0011124FF27591B99F0593F50F40B
:10352000503E68F11A16F040A22F232F342F442763
:10353000585FF3CF469537952795A795F04053955B
:10354000C9F77EF41F16BA0B620B730B840BBAF02B
:103550009150A1F0FF0FBB1F661F771F881FC2F796
:103560000EC0BA0F621F731F841F48F487957795AA
:103570006795B795F7959E3F08F0B0CF9395880F64
:1035800008F09927EE0F9795879508950E94DA1A0B
:103590000C94D6230E94CF2358F00E94C82340F0F9
:1035A00029F45F3F29F00C94BF2351110C940A2495
:1035B0000C94C5230E94E72368F39923B1F35523A4
:1035C00091F3951B550BBB27AA2762177307840736
:1035D00038F09F5F5F4F220F331F441FAA1FA9F3CC
:1035E00035D00E2E3AF0E0E832D091505040E695BA
:1035F000001CCAF72BD0FE2F29D0660F771F881F1B
:10360000BB1F261737074807AB07B0E809F0BB0B0D
:10361000802DBF01FF2793585F4F3AF09E3F510521
:1036200078F00C94BF230C940A245F3FE4F3983E97
:10363000D4F3869577956795B795F7959F5FC9F70A
:10364000880F911D9695879597F90895E1E0660F8B
:10365000771F881FBB1F621773078407BA0720F004
:10366000621B730B840BBA0BEE1F88F7E09508956D
:103670000E943F1B6894B1110C940A2408950E9483
:10368000EF2388F09F5798F0B92F9927B751B0F0E2
:10369000E1F0660F771F881F991F1AF0BA95C9F7D6
:1036A00014C0B13091F00E940924B1E008950C9447
:1036B0000924672F782F8827B85F39F0B93FCCF3FA
:1036C000869577956795B395D9F73EF49095809553
:1036D000709561957F4F8F4F9F4F08950E94C8232B
:1036E00020F019F00E94CF2350F40C94C5230C94C1
:1036F0000A24E92F0E94E72388F35523B1F3E7FB5F
:103700006217730784079507A8F189F3E92FFF274C
:1037100088232AF03197660F771F881FDAF7952FD5
:103720005527442332F091505040220F331F441F3D
:10373000D2F7BB27E91BF50B621B730B840BB10996
:10374000B1F222F4620F731F841FB11D31972AF06A
:10375000660F771F881FBB1FEFCF9150504062F05C
:1037600041F0882332F0660F771F881F9150504038
:10377000C1F793950C94C21B8695779567959F5FCB
:10378000D9F7F7CF9F3F31F0915020F48795779587
:103790006795B795880F911D9695879597F9089528
:1037A000CF93DF938230910510F482E090E0E091B6
:1037B0003407F091350720E030E0C0E0D0E03097EA
:1037C00011F14081518148175907C0F04817590736
:1037D00061F482819381209719F09B838A832BC0A7
:1037E000909335078093340726C02115310519F0D1
:1037F0004217530718F49A01BE01DF01EF0102805E
:10380000F381E02DDCCF2115310509F1281B390B9F
:103810002430310590F412968D919C911397611587
:10382000710521F0FB019383828304C090933507D7
:1038300080933407FD01329644C0FD01E20FF31F6F
:1038400081939193225031092D933C933AC020915A
:10385000320730913307232B41F42091040130913A
:1038600005013093330720933207209102013091F4
:1038700003012115310541F42DB73EB740910601F2
:1038800050910701241B350BE0913207F09133076B
:10389000E217F307A0F42E1B3F0B2817390778F027
:1038A000AC014E5F5F4F2417350748F04E0F5F1F86
:1038B00050933307409332078193919302C0E0E025
:1038C000F0E0CF01DF91CF9108950F931F93CF9335
:1038D000DF93009709F48CC0FC01329713821282A7
:1038E00000913407109135070115110581F42081ED
:1038F0003181820F931F20913207309133072817AF
:10390000390779F5F0933307E093320771C0D80196
:1039100040E050E0AE17BF0750F412962D913C9155
:103920001397AD012115310509F1D901F3CF9D019F
:10393000DA013383228360817181860F971F82179A
:10394000930769F4EC0128813981260F371F2E5F18
:103950003F4F318320838A819B8193838283452BD0
:1039600029F4F0933507E093340742C01396FC9393
:10397000EE931297ED01499159919E01240F351F45
:10398000E217F30771F480819181840F951F0296ED
:1039900011969C938E938281938113969C938E9320
:1039A0001297E0E0F0E0D80112968D919C91139768
:1039B000009719F0F8018C01F6CF8D919C91980138
:1039C0002E5F3F4F820F931F2091320730913307B4
:1039D0002817390769F4309729F4109235071092A7
:1039E000340702C013821282109333070093320708
:1039F000DF91CF911F910F9108956F927F928F92D7
:103A00009F92AF92BF92CF92DF92EF92FF920F936D
:103A10001F93CF93DF93EC01009789F4CB01DF91E3
:103A2000CF911F910F91FF90EF90DF90CF90BF90BB
:103A3000AF909F908F907F906F900C94D01BFC0163
:103A4000E60FF71F9C0122503109E217F30708F433
:103A5000ACC0D9010D911C91119706171707B0F052
:103A60000530110508F49FC0C80104978617970711
:103A700008F499C002501109061B170B019311930A
:103A80006D937C93CF010E94651C8DC05B01A01AD1
:103A9000B10A4C01800E911EA0913407B0913507F8
:103AA00040E050E0E12CF12C109709F44AC0A81531
:103AB000B905D1F56D907C901197630182E0C80E35
:103AC000D11CCA14DB0480F1A3014A195B096A0105
:103AD00082E0C80ED11C1296BC9012971396AC913E
:103AE000B5E0CB16D10440F0B282A383518340836A
:103AF000D9016D937C930AC00E5F1F4FC301800FE5
:103B0000911FF90191838083EB2DFA2FE114F104C9
:103B100031F0D7011396FC93EE93129744C0F093C3
:103B20003507E09334073FC08D919C91119748175A
:103B3000590708F4AC017D0112960D90BC91A02D9F
:103B4000B3CF809132079091330788159905E1F43E
:103B500046175707C8F4809102019091030100971E
:103B600041F48DB79EB74091060150910701841B27
:103B7000950BE817F907C8F4F0933307E093320781
:103B8000F901718360830FC0CB010E94D01B7C01BF
:103B9000009759F0A801BE010E94EB1DCE010E94C2
:103BA000651CC70104C0CE0102C080E090E0DF9137
:103BB000CF911F910F91FF90EF90DF90CF90BF902A
:103BC000AF909F908F907F906F90089581E090E0EC
:103BD000F8940C945C24FB01DC0102C001900D926E
:103BE00041505040D8F70895FC018191861721F08B
:103BF0008823D9F7992708953197CF010895FB01BC
:103C0000DC018D91019080190110D9F3990B089571
:103C1000FB01DC0101900D920020E1F70895FB010A
:103C2000DC014150504048F001900D920020C9F74E
:103C300001C01D9241505040E0F70895FB015191A1
:103C40005523A9F0BF01DC014D9145174111E1F762
:103C500059F4CD010190002049F04D9140154111DA
:103C6000C9F3FB014111EFCF81E090E00197089586
:103C7000EF920F931F93CF93DF93E80147FD02C0AC
:103C800034E001C034E1E42F440FFF0BF7FF03C021
:103C9000F195E195F109E32E022F2E2FAE010E943E
:103CA000EC1ECE01DF91CF911F910F91EF900895FF
:103CB000662777270C947A20FC0188279927E894B7
:103CC00021912032E9F3293010F02E30C8F32B3245
:103CD00041F02D3239F4689404C00E94BF1E820F57
:103CE000911D219120532A30C0F31EF490958195A7
:103CF0009F4F08951F93FC0199278827BC01E894E2
:103D000011911032E9F3193010F01E30C8F31B3254
:103D100051F01D3249F4689406C00E94AA1E610F3A
:103D2000711D811D911D119110531A30B0F33EF495
:103D300090958095709561957F4F8F4F9F4F1F9104
:103D4000089591110C94C122803219F08950855048
:103D5000C8F70895592F482F372F262F660F771F42
:103D6000881F991F660F771F881F991F620F731F87
:103D7000841F951F660F771F881F991F08957AE08B
:103D8000979F902D879F802D910D11240895453286
:103D9000510520F4423010F00C94D21EFB01108229
:103DA000CB010895BB27FB015527AA27880F991F30
:103DB000AA1FA41710F0A41B83955051B9F7A05D5A
:103DC000AA3308F0A95DA193009779F7B111B193D7
:103DD0001192CB010C94DC224F925F926F927F92F2
:103DE0009F92AF92BF92CF92DF92EF92FF920F938A
:103DF0001F93CF93DF93CDB7DEB729970FB6F89413
:103E0000DEBF0FBECDBF6A01122FB02E2BE32017ED
:103E100020F0FF24F394F00E02C0BCE3FB2E0F2D24
:103E200027E0AE014F5F5F4F0E94E921AC0189811D
:103E3000982F9970913031F0E1FC06C0E0FE06C089
:103E400090E205C09DE203C09BE201C090E0EE2D30
:103E5000E07183FF3CC0911102C083E001C084E0A7
:103E6000811718F4212F281B01C020E0E1110BC09D
:103E7000F601822F30E2882319F031938150FBCF75
:103E8000C20ED11C20E0992329F0D6019C93F601A3
:103E900031966F01C6010396E2FE0AC03EE4D601E8
:103EA0003C9341E411964C93119712963C9306C0B3
:103EB0003EE6F601308341E641833283FC01322F36
:103EC00040E2332309F442C041933150FACF82FFDC
:103ED00044C0911102C083E001C084E0811718F44E
:103EE000212F281B01C020E0E1110BC0F601822F19
:103EF00030E2882319F031938150FBCFC20ED11CE0
:103F000020E0992329F0D6019C93F60131966F01A8
:103F1000C6010396E2FE0BC039E4D6013C933EE4B1
:103F200011963C93119736E412963C9307C039E6FC
:103F3000F60130833EE6318336E63283FC01322FD0
:103F400040E2332319F041933150FBCFFC01E20FE3
:103F5000F11D10828EEF9FEFB7C0F1E0911101C00B
:103F6000F0E06F2F70E01416150624F49A012F5F0D
:103F70003F4F02C021E030E0260F371FBB2029F061
:103F80006B2D70E06F5F7F4F02C060E070E0260F26
:103F9000371F612F70E0261737071CF4121B212FE3
:103FA00001C020E03E2D387159F4D601322F60E275
:103FB000332319F06D933150FBCFC20ED11C20E09A
:103FC000FF2331F0D6019C93B6016F5F7F4F6B01E9
:103FD000E1110BC0F601922F30E3992319F03193D0
:103FE0009150FBCFC20ED11C20E09F2D940F3A813F
:103FF000782F7071A72E84FF03C0313309F49150DC
:10400000191624F4993018F098E001C091E0E42FDB
:10401000852F57FF02C0E0E080E06E2F782FE0E0B0
:10402000F0E0AEE29A2E3A01691A71082A01461AA6
:10403000570A0B2D10E01195019511096F3F8FEF75
:10404000780729F4D6019C92C60101966C014617A7
:10405000570784F0661677066CF47F01E40CF51CB4
:10406000A1E0B0E0AC0FBD1FEA0EFB1ED701119618
:10407000BC9002C090E3B92E615071093196C6011F
:1040800001967C016017710724F0D601BC926C0187
:10409000D5CF6417750741F4363320F4353321F456
:1040A000A11002C081E3B82EF601B082F701822F81
:1040B00090E2882319F091938150FBCFF701E20F32
:1040C000F11D108280E090E029960FB6F894DEBFD3
:1040D0000FBECDBFDF91CF911F910F91FF90EF9059
:1040E000DF90CF90BF90AF909F907F906F905F9048
:1040F0004F9008956F927F928F929F92AF92BF924E
:10410000CF92DF92EF92FF920F931F93CF93DF93A3
:10411000EC017B016115710519F0DB018D939C9316
:104120008E010F5F1F4F7880872D90E00E94A11EA7
:10413000892B11F0E801F4CFBDE27B1205C00F5FBF
:104140001F4F7980C1E008C0EBE27E1204C08E01EF
:104150000E5F1F4F7980C0E06801F1E0CF1AD108EF
:1041600043E050E066E271E0C6010E94C422892B60
:10417000F1F4680122E0C20ED11C45E050E061E29A
:1041800071E0C6010E94C422892B21F4680187E0F6
:10419000C80ED11CE114F10419F0D701CD92DC92C4
:1041A000C111FFC060E070E080E89FE703C143E019
:1041B00050E06EE171E0C6010E94C422892B51F4E7
:1041C000E114F10409F4F2C00E5F1F4FF7011183EF
:1041D0000083ECC0680160E070E0CB0100E010E01B
:1041E000F601D0EDD70DDA3058F52C2F2260622E73
:1041F0002C2F2870C2FF05C0211128C00F5F1F4F50
:1042000025C0222311F001501109A5E0B0E09B0167
:10421000AC010E9442244B015C01880C991CAA1C31
:10422000BB1CC501B4016D0F711D811D911D683945
:10423000A9E97A078A07A9E19A0740F0C66005C094
:10424000DE3F51F4C3FD44C0C8606C2EBFEFCB1AF3
:10425000DB0A7080C62DC4CF2D2F2F7D2531C1F5EF
:1042600040814D3211F4C06106C04B3221F03196CD
:1042700021E030E006C03296D60111964C9122E042
:1042800030E0A0EDA40FAA3018F0E21BF30B20C021
:1042900040E050E04038BCE05B075CF49A01220F3C
:1042A000331F220F331F420F531F440F551F4A0F56
:1042B000511D3196DF0111972C91A0EDA20FAA306C
:1042C00048F3C4FF03C0519541955109040F151FD0
:1042D000C1FF07C0E114F10421F03197D701ED933C
:1042E000FC930E94F122C370C33019F06B017C0172
:1042F00006C06B017C01F7FAF094F7F8F09420E027
:1043000030E0A901C701B6010E94EC22882309F41C
:1043100045C017FF06C0119501951109CDE3D1E005
:1043200002C0C5E5D1E05E01B8E1AB1AB1084601B3
:10433000BE2DAF2D90E2E92EF12C0E151F0584F055
:10434000FE012591359145915491B4018B2F9A2FFF
:104350000E9452234B01B82FA92F0E191F09EDCF30
:104360002497F594E794CA15DB0539F76401EB2E21
:10437000FA2E8E2D880F8F2D881F8F3F49F020E059
:1043800030E0A901C701B6010E94EC22811106C0EC
:1043900082E290E09093370780933607C701B60119
:1043A00009C060E070E080E89FEF04C060E070E06A
:1043B00080EC9FE7DF91CF911F910F91FF90EF90DD
:1043C000DF90CF90BF90AF909F908F907F906F9035
:1043D0000895283008F027E03327DA01990F311DBE
:1043E00087FD916000966105710539F432602E5F9A
:1043F0003D9330E32A95E1F708959F3F30F08038F0
:104400007105610509F03C5F3C5F3D93913008F018
:104410008068911DDF93CF931F930F93FF92EF92CC
:10442000192F987F9695E92F96959695E90FFF2776
:10443000ED54FE4F99273327EE24FF24A701E7010F
:1044400005900894079428F4360FE71EF81E491FBC
:10445000511D660F771F881F991F0694A1F70590BD
:10446000079428F4E70EF81E491F561FC11D770F49
:10447000881F991F661F0694A1F70590079428F4DA
:10448000F80E491F561FC71FD11D880F991F661FA1
:10449000771F0694A1F70590079420F4490F561F43
:1044A000C71FD81F990F661F771F881F0694A9F78B
:1044B00084911095177041F0D695C79557954795FB
:1044C000F794E7941A95C1F7E9E5F1E0689415903F
:1044D000159135916591959105907FE27395E1185D
:1044E000F10A430B560BC90BD009C0F7E10CF11EC2
:1044F000431F561FC91FD01D7EF4703311F48A95D7
:10450000E6CFE894015030F0080F0AF400270217B4
:1045100008F4202F2395022F7A3328F079E37D9336
:104520002A95E9F710C07D932A9589F60694979508
:104530006795379517951794E118F10A430B560BB9
:10454000C90BD00998F023957E9173957A3308F0C2
:1045500070E37C932013B8F77E9170617D9330F007
:10456000839571E37D9370E32A95E1F71124EF9031
:10457000FF900F911F91CF91DF91992787FD909523
:104580000895992788270895FB01DC014150504088
:1045900088F08D9181341CF08B350CF4805E659130
:1045A00061341CF06B350CF4605E861B611171F395
:1045B000990B0895881BFCCFDC01FC01672F7191DA
:1045C0007723E1F7329704C07C916D9370836291F9
:1045D000AE17BF07C8F308950E942E2308F481E0A8
:1045E0000895E89409C097FB3EF4909580957095E6
:1045F00061957F4F8F4F9F4F9923A9F0F92F96E92F
:10460000BB279395F695879577956795B795F111A3
:10461000F8CFFAF4BB0F11F460FF1BC06F5F7F4F40
:104620008F4F9F4F16C0882311F096E911C0772352
:1046300021F09EE8872F762F05C0662371F096E85B
:10464000862F70E060E02AF09A95660F771F881F2A
:10465000DAF7880F9695879597F90895990F0008CE
:10466000550FAA0BE0E8FEEF16161706E807F90744
:10467000C0F012161306E407F50798F0621B730BDF
:10468000840B950B39F40A2661F0232B242B252B60
:1046900021F408950A2609F4A140A6958FEF811D03
:1046A000811D08950E9465230C94D6230E94C8237F
:1046B00038F00E94CF2320F0952311F00C94BF23F3
:1046C0000C94C52311240C940A240E94E72370F350
:1046D000959FC1F3950F50E0551F629FF001729FA7
:1046E000BB27F00DB11D639FAA27F00DB11DAA1FB6
:1046F000649F6627B00DA11D661F829F2227B00D03
:10470000A11D621F739FB00DA11D621F839FA00D8D
:10471000611D221F749F3327A00D611D231F849FDD
:10472000600D211D822F762F6A2F11249F57504034
:104730009AF0F1F088234AF0EE0FFF1FBB1F661FAF
:10474000771F881F91505040A9F79E3F510580F078
:104750000C94BF230C940A245F3FE4F3983ED4F3F7
:10476000869577956795B795F795E7959F5FC1F71C
:10477000FE2B880F911D9695879597F9089597F9C7
:104780009F6780E870E060E008959FEF80EC0895F7
:1047900000240A9416161706180609060895002420
:1047A0000A9412161306140605060895092E03949A
:1047B000000C11F4882352F0BB0F40F4BF2B11F40E
:1047C00060FF04C06F5F7F4F8F4F9F4F089557FD6D
:1047D0009058440F551F59F05F3F71F04795880F6F
:1047E00097FB991F61F09F3F79F087950895121606
:1047F00013061406551FF2CF4695F1DF08C01616B2
:1048000017061806991FF1CF869571056105089462
:104810000895E894BB2766277727CB0197F9089579
:10482000DB018F939F930E944224BF91AF91A29F7F
:10483000800D911DA39F900DB29F900D112408959E
:10484000A1E21A2EAA1BBB1BFD010DC0AA1FBB1F94
:10485000EE1FFF1FA217B307E407F50720F0A21B06
:10486000B30BE40BF50B661F771F881F991F1A9473
:1048700069F760957095809590959B01AC01BD019D
:10488000CF0108950E944D24A59F900DB49F900DD7
:10489000A49F800D911D11240895A29FB001B39F84
:1048A000C001A39F700D811D1124911DB29F700D39
:1048B000811D1124911D089511E0CBE2D1E004C0C7
:1048C000FE010E943C1A2196CC32D107C9F7F89418
:0248D000FFCF18
:1048D200010100003807800000000000FC024A0DC0
:1048E20050036803E302FB0200000000D4014A0DFA
:1048F2009301710185011B02000000000304D30330
:10490200DB02C702B802B7020000000063044A0DCE
:1049120063046304630463040000000032044A0D6C
:104922000000000063044A0D7475726E5F6F666664
:104932000079617920697420776F726B65642E202B
:104942007475726E206F6666206E6F770074757272
:104952006E5F6F6E0079617979792E207475726E4F
:10496200206F6E206E6F7700564D4450565F317C3B
:10497200315F564D4450560D0A0024504D544B326F
:1049820032302C313030302A314600564D445045B9
:104992005F003A323A007C005F564D445045002495
:1049A200475047474100244750524D43000A54693B
:1049B2006D653A20003A3000446174653A20002F58
:1049C200004C6F636174696F6E3A20002C200053B3
:1049D2007065656420286B6E6F7473293A200041FC
:1049E2006C7469747564653A2000536174656C6C0B
:1049F200697465733A200048656C6C6F2066726F4B
:104A02006D20746865206D61696E20617672004860
:104A1200656164696E673A200050697463683A2080
:104A220000526F6C6C3A200054656D703A20004958
:104A32006E76616C696420446174612066726F6D88
:104A4200204750532E2E20476F696E6720746F20C7
:104A5200736C65657000475053206261636B20750B
:104A62007020616E642072756E6E696E672E0077BB
:104A72006F6B65206261636B20757000436F6D70B0
:104A82006173732073656E736F72206661696C6502
:024A92006400BE
:00000001FF
